{
  "contractName": "Inbox",
  "abi": [
    {
      "inputs": [],
      "stateMutability": "nonpayable",
      "type": "constructor"
    },
    {
      "anonymous": false,
      "inputs": [
        {
          "indexed": false,
          "internalType": "string",
          "name": "response",
          "type": "string"
        }
      ],
      "name": "inboxResponse",
      "type": "event"
    },
    {
      "anonymous": false,
      "inputs": [
        {
          "indexed": false,
          "internalType": "string",
          "name": "_ipfsHash",
          "type": "string"
        },
        {
          "indexed": false,
          "internalType": "string",
          "name": "_address",
          "type": "string"
        }
      ],
      "name": "ipfsSent",
      "type": "event"
    },
    {
      "inputs": [
        {
          "internalType": "string",
          "name": "",
          "type": "string"
        }
      ],
      "name": "ipfsInbox",
      "outputs": [
        {
          "internalType": "string",
          "name": "",
          "type": "string"
        }
      ],
      "stateMutability": "view",
      "type": "function",
      "constant": true
    },
    {
      "inputs": [
        {
          "internalType": "string",
          "name": "_address",
          "type": "string"
        },
        {
          "internalType": "string",
          "name": "_ipfsHash",
          "type": "string"
        }
      ],
      "name": "sendIPFS",
      "outputs": [],
      "stateMutability": "nonpayable",
      "type": "function"
    },
    {
      "inputs": [
        {
          "internalType": "string",
          "name": "_address",
          "type": "string"
        }
      ],
      "name": "getHash",
      "outputs": [
        {
          "internalType": "string",
          "name": "",
          "type": "string"
        }
      ],
      "stateMutability": "view",
      "type": "function",
      "constant": true
    }
  ],
  "bytecode": "0x608060405234801561001057600080fd5b506107e2806100206000396000f3fe608060405234801561001057600080fd5b50600436106100415760003560e01c80633bc86509146100465780635b6beeb914610062578063d9fb97f714610092575b600080fd5b610060600480360381019061005b9190610556565b6100c2565b005b61007c600480360381019061007791906105ce565b6101ee565b604051610089919061069f565b60405180910390f35b6100ac60048036038101906100a791906105ce565b6102a3565b6040516100b9919061069f565b60405180910390f35b6000826040516100d291906106fd565b908152602001604051809103902080546100eb90610743565b80601f016020809104026020016040519081016040528092919081815260200182805461011790610743565b80156101645780601f1061013957610100808354040283529160200191610164565b820191906000526020600020905b81548152906001019060200180831161014757829003601f168201915b50505050506000819050600081511461017c57600080fd5b8260008560405161018d91906106fd565b908152602001604051809103902090805190602001906101ae929190610359565b507fe20751acac1c1604f322f90c67a302e99b44a472645e625269c08832cded234083856040516101e0929190610775565b60405180910390a150505050565b60606000808360405161020191906106fd565b9081526020016040518091039020805461021a90610743565b80601f016020809104026020016040519081016040528092919081815260200182805461024690610743565b80156102935780601f1061026857610100808354040283529160200191610293565b820191906000526020600020905b81548152906001019060200180831161027657829003601f168201915b5050505050905080915050919050565b60008180516020810182018051848252602083016020850120818352809550505050505060009150905080546102d890610743565b80601f016020809104026020016040519081016040528092919081815260200182805461030490610743565b80156103515780601f1061032657610100808354040283529160200191610351565b820191906000526020600020905b81548152906001019060200180831161033457829003601f168201915b505050505081565b82805461036590610743565b90600052602060002090601f01602090048101928261038757600085556103ce565b82601f106103a057805160ff19168380011785556103ce565b828001600101855582156103ce579182015b828111156103cd5782518255916020019190600101906103b2565b5b5090506103db91906103df565b5090565b5b808211156103f85760008160009055506001016103e0565b5090565b6000604051905090565b600080fd5b600080fd5b600080fd5b600080fd5b6000601f19601f8301169050919050565b7f4e487b7100000000000000000000000000000000000000000000000000000000600052604160045260246000fd5b6104638261041a565b810181811067ffffffffffffffff821117156104825761048161042b565b5b80604052505050565b60006104956103fc565b90506104a1828261045a565b919050565b600067ffffffffffffffff8211156104c1576104c061042b565b5b6104ca8261041a565b9050602081019050919050565b82818337600083830152505050565b60006104f96104f4846104a6565b61048b565b90508281526020810184848401111561051557610514610415565b5b6105208482856104d7565b509392505050565b600082601f83011261053d5761053c610410565b5b813561054d8482602086016104e6565b91505092915050565b6000806040838503121561056d5761056c610406565b5b600083013567ffffffffffffffff81111561058b5761058a61040b565b5b61059785828601610528565b925050602083013567ffffffffffffffff8111156105b8576105b761040b565b5b6105c485828601610528565b9150509250929050565b6000602082840312156105e4576105e3610406565b5b600082013567ffffffffffffffff8111156106025761060161040b565b5b61060e84828501610528565b91505092915050565b600081519050919050565b600082825260208201905092915050565b60005b83811015610651578082015181840152602081019050610636565b83811115610660576000848401525b50505050565b600061067182610617565b61067b8185610622565b935061068b818560208601610633565b6106948161041a565b840191505092915050565b600060208201905081810360008301526106b98184610666565b905092915050565b600081905092915050565b60006106d782610617565b6106e181856106c1565b93506106f1818560208601610633565b80840191505092915050565b600061070982846106cc565b915081905092915050565b7f4e487b7100000000000000000000000000000000000000000000000000000000600052602260045260246000fd5b6000600282049050600182168061075b57607f821691505b6020821081141561076f5761076e610714565b5b50919050565b6000604082019050818103600083015261078f8185610666565b905081810360208301526107a38184610666565b9050939250505056fea264697066735822122073d806f6908545c947b4b6ae223265745f22dcec5cac70fece5e123fd88f493d64736f6c634300080c0033",
  "immutableReferences": {},
  "source": "pragma solidity ^0.8.0;\n\n\ncontract Inbox{\n    //Structure\n    mapping (string=>string) public ipfsInbox;\n    //Events\n    event ipfsSent(string _ipfsHash, string _address);\n    event inboxResponse(string response);\n    //Modifiers\n    modifier notFull (string memory _string) {\n    bytes memory stringTest = bytes(_string);\n    require(stringTest.length==0);\n    _;\n    }\n    // An empty constructor that creates an instance of the conteact\n    constructor() public{}\n    //takes in receiver's address and IPFS hash. Places the IPFSadress in the receiver's inbox\n    function sendIPFS(string memory _address, string memory _ipfsHash) notFull(ipfsInbox[_address]) public{\n        ipfsInbox[_address] = _ipfsHash;\n        emit ipfsSent(_ipfsHash, _address);\n    }\n    //retrieves hash\n    function getHash(string memory _address) public view returns(string memory) {\n        string memory ipfs_hash=ipfsInbox[_address];\n         //emit inboxResponse(ipfs_hash);\n        return ipfs_hash;\n    }\n}\n",
  "sourcePath": "/Users/narbone/workspace/solidity/contracts/Inbox.sol",
  "compiler": {
    "name": "solc",
    "version": "0.8.12+commit.f00d7308.Emscripten.clang"
  },
  "schemaVersion": "3.4.6",
  "updatedAt": "2022-03-15T11:55:11.478Z",
  "networkType": "ethereum",
  "devdoc": {
    "kind": "dev",
    "methods": {},
    "version": 1
  },
  "userdoc": {
    "kind": "user",
    "methods": {},
    "version": 1
  }
}